:020000040000FA
:060000000A128A110C280F
:10000800FE00030EF1000A08F2000A128A11B02954
:100018000A128A110F2883132A30FD000230FE00CD
:100028000930FF00203084000A128A11CD210A12FB
:100038008A1183010A128A11EE2983120313070811
:10004800AF002F08FA006430F3000030F4007A089B
:10005800AF00B0012F08F5003008F6000A128A1127
:1000680096200A128A11730883120313B10031080B
:10007800B5006430F3000030F4007A08AF00B00136
:100088002F08F5003008F6000A128A11FF200A121C
:100098008A11730883120313B1003108F9000A307A
:1000A800F3000030F4007908AF00B0012F08F50024
:1000B8003008F6000A128A1196200A128A1173086B
:1000C80083120313B1003108F7000A30F30000303F
:1000D800F4007A08AF00B0012F08F5003008F600E8
:1000E8000A128A11FF200A128A1173088312031355
:1000F800B1003108F8007808203E84008313000816
:10010800AF002F08B4007708203E84000008AF0035
:100118002F08B3003508203E84000008AF002F08E0
:10012800B200080083120313AC01F41F9C289D2819
:10013800A428F309F409F30A0319F40AAC01AC0A78
:10014800F61FA728A828B128F509F609F50A031902
:10015800F60A0130AA002A08AC06AD01AE01730800
:1001680074040319B828B928F028AB01AB0AC728CA
:1001780001300310F30DF40DFF3E031DBD280130BF
:10018800AA002A08AB07F41FCA28CB28BC280130CC
:100198000310AD0DAE0DFF3E031DCC28740876028A
:1001A800031DD82873087502031CDB28DC28E32804
:1001B8007308F5027408031CF603F6022D140130C7
:1001C8000310F40CF30CFF3E031DE4280130AB02CE
:1001D800031DEF28F028CB282C080319F428F5284C
:1001E800FA28AD09AE09AD0A0319AE0A2E08F400C3
:1001F8002D08F300080083120313AC01F61F05292C
:1002080006290D29F509F609F50A0319F60AAC01BC
:10021800AC0AF41F102911291629F309F409F30A65
:100228000319F40A7308740403191B291C294B29A0
:10023800AB01AB0A2A2901300310F30DF40DFF3E80
:10024800031D20290130AA002A08AB07F41F2D2915
:100258002E291F2974087602031D34297308750294
:10026800031C372938293E297308F5027408031C32
:10027800F603F60201300310F40CF30CFF3E031DE5
:100288003F290130AB02031D4A294B292E292C088E
:1002980003194F2950295529F509F609F50A0319B3
:1002A800F60A7608F4007508F300080083120313B1
:1002B80089010808031D612962296A293408850013
:1002C80009140130F0007008880779290803031D14
:1002D8006E296F2973293308850089146529320826
:1002E800850009150808023E8800EB3081000B11D3
:1002F80008000A128A1113220A128A110A128A1194
:1003080097210A128A110A128A1120220A128A11C6
:100318000A128A111A220A128A110A128A11FC2157
:100328000A128A110800831603178901880103300D
:1003380083160313860085018701F8308800890138
:10034800811303309500831203138501033086005F
:1003580087018801890108000B1DB329B429B9292F
:100368000A128A115A210A128A110B1CBC29BD29AA
:10037800C2290A128A11DC210A128A1172088A001B
:10038800710E8300FE0E7E0E09007E088A007F082B
:1003980082000A128A11C9210A128A118000840A6D
:1003A80004087D0603190034FF0A0319FE0ACD2943
:1003B800831203130618E129E229E6290130F00027
:1003C800700887078618E929EA29EC29013087028D
:1003D8000B1008000A128A117D210A128A110A12CA
:1003E8008A1121200A128A11F3290A128A110C286B
:1003F8008316031381128111011581140114EB3046
:100408008312031381000B1108003F3406345B3458
:100418004F3466346D347D3407347F346734831643
:1004280003130F178F160F120F14080003308316CB
:10043800031396000B1008008B178B150B108B16E7
:040448000B1108008C
:04400E00C430FF3F7C
:00000001FF
